:100000000C943A000C94A8000C94BE000C94DF00F1
:100010000C94DF000C9464000C94DF000C94DF005F
:100020000C94DF000C94DF000C94DF000C94DF00D4
:100030000C94DF000C94DF000C94DF000C94DF00C4
:100040000C94DF000C94DF000C94DF000C94DF00B4
:100050000C94DF000C94DF000C94DF000C94DF00A4
:100060000C94DF000C94DF0001000101800101010C
:10007000020001CC11241FBECFEFD8E0DEBFCDBF00
:10008000E8E6F0E040E017C0B591A59135912591E3
:10009000059107FD0CC095918591EF01F92FE82F8F
:1000A00005900D92A217B307D9F7FE0104C01D9267
:1000B000A217B307E1F7E437F40731F70E94900085
:0800C0000C94D400F894FFCF6A
:1000C8001F920F920FB60F9211248F939F93109245
:1000D80000010BC089E397E00197F1F700C0000029
:1000E800809100018F5F80930001909100018091C1
:1000F8000101981778F388B1806288B995E89A95D4
:10010800F1F7000088B18F7D88B99F918F910F908A
:080118000FBE0F901F90189517
:10012000F894E8E6F0E0808184608083EDE6F0E01A
:10013000808181608083E9E6F0E080818A6080834D
:100140008DB383608DBB87B1806287B97894FFCF10
:100150001F920F920FB60F9211248F93809101017D
:10016000815080930101823018F481E08093010175
:0C0170008F910F900FBE0F901F901895FC
:10017C001F920F920FB60F9211248F938091010151
:10018C008F5F80930101893018F089E08093010121
:0C019C008F910F900FBE0F901F901895D0
:1001A800EC010E94E4000E94E300CE010E94E500F9
:0601B800CE010E94E100EF
:0401BE000C9400009D
:0401C2000E94620035
:0201C60008959A
:0201C800089598
:0201CA00089596
:0101CC000929
:00000001FF
